S011000054585F71756164726F2E737265637C
S113000055C0000070C000006EC000006CC000004D
S11300106AC0000068C0000066C0000064C0000040
S113002062C000000C940E0B5EC000005CC00000B7
S11300305BC0000082C00000A9C00000D0C0000066
S1130040F7C000001EC1000045C100006CC10000E3
S113005093C10000BAC1000046C0000044C00000C3
S113006042C0000040C000003EC000003CC0000090
S1130070B0C20000D5C2000036C0000034C0000089
S113008032C0000030C00000D8C700002CC00000FF
S1130090C5C10000ECC1000013C200003AC2000058
S11300A022C0000020C000001EC0000011241FBE9A
S11300B0CFEFCDBFDFE2DEBF10E2A0E0B0E2E2EAC4
S11300C0FAE102C005900D92AC31B107D9F721E2F3
S11300D0ACE1B0E201C01D92A93EB207E1F70E9473
S11300E03F0B0C944F0D8CCF1F920F920FB60F92B3
S11300F011242F933F934F935F936F937F938F9329
S11301009F93AF93BF93EF93FF93E0913620F091C9
S11301103720309709F00995FF91EF91BF91AF9186
S11301209F918F917F916F915F914F913F912F910B
S11301300F900FBE0F901F9018951F920F920FB63D
S11301400F9211242F933F934F935F936F937F9359
S11301508F939F93AF93BF93EF93FF93E0913420DA
S1130160F0913520309709F00995FF91EF91BF91F7
S1130170AF919F918F917F916F915F914F913F913B
S11301802F910F900FBE0F901F9018951F920F92F2
S11301900FB60F9211242F933F934F935F936F9356
S11301A07F938F939F93AF93BF93EF93FF93E091CC
S11301B03220F0913320309709F00995FF91EF91A7
S11301C0BF91AF919F918F917F916F915F914F916B
S11301D03F912F910F900FBE0F901F9018951F9273
S11301E00F920FB60F9211242F933F934F935F9367
S11301F06F937F938F939F93AF93BF93EF93FF93EB
S1130200E0913020F0913120309709F00995FF9169
S1130210EF91BF91AF919F918F917F916F915F917A
S11302204F913F912F910F900FBE0F901F901895F3
S11302301F920F920FB60F9211242F933F934F9357
S11302405F936F937F938F939F93AF93BF93EF933A
S1130250FF93E0912E20F0912F20309709F009951B
S1130260FF91EF91BF91AF919F918F917F916F918A
S11302705F914F913F912F910F900FBE0F901F9060
S113028018951F920F920FB60F9211242F933F933C
S11302904F935F936F937F938F939F93AF93BF938A
S11302A0EF93FF93E0912C20F0912D20309709F0EB
S11302B00995FF91EF91BF91AF919F918F917F919C
S11302C06F915F914F913F912F910F900FBE0F90BF
S11302D01F9018951F920F920FB60F9211242F930F
S11302E03F934F935F936F937F938F939F93AF93BA
S11302F0BF93EF93FF93E0912A20F0912B20309746
S113030009F00995FF91EF91BF91AF919F918F9162
S11303107F916F915F914F913F912F910F900FBEFD
S11303200F901F9018951F920F920FB60F921124E1
S11303302F933F934F935F936F937F938F939F93E9
S1130340AF93BF93EF93FF93E0912820F09129207E
S1130350309709F00995FF91EF91BF91AF919F916B
S11303608F917F916F915F914F913F912F910F905A
S11303700FBE0F901F9018951F920F920FB60F92F9
S113038011242F933F934F935F936F937F938F9396
S11303909F93AF93BF93EF93FF93E0912620F09147
S11303A02720309709F00995FF91EF91BF91AF9104
S11303B09F918F917F916F915F914F913F912F9179
S11303C00F900FBE0F901F9018951F920F920FB6AB
S11303D00F9211242F933F934F935F936F937F93C7
S11303E08F939F93AF93BF93EF93FF93E091242058
S11303F0F0912520309709F00995FF91EF91BF9175
S1130400AF919F918F917F916F915F914F913F91A8
S11304102F910F900FBE0F901F9018951F920F925F
S11304200FB60F9211242F933F934F935F936F93C3
S11304307F938F939F93AF93BF93EF93FF93E09139
S11304402220F0912320309709F00995FF91EF9134
S1130450BF91AF919F918F917F916F915F914F91D8
S11304603F912F910F900FBE0F901F9018951F92E0
S11304700F920FB60F9211242F933F934F935F93D4
S11304806F937F938F939F93AF93BF93EF93FF9358
S1130490E0912020F0912120309709F00995FF91F7
S11304A0EF91BF91AF919F918F917F916F915F91E8
S11304B04F913F912F910F900FBE0F901F90189561
S11304C01F920F920FB60F9211242F933F934F93C5
S11304D05F936F937F938F939F93AF93BF93EF93A8
S11304E0FF93E0911E20F0911F20309709F00995A9
S11304F0FF91EF91BF91AF919F918F917F916F91F8
S11305005F914F913F912F910F900FBE0F901F90CD
S113051018951F920F920FB60F9211242F933F93A9
S11305204F935F936F937F938F939F93AF93BF93F7
S1130530EF93FF93E0911C20F0911D20309709F078
S11305400995FF91EF91BF91AF919F918F917F9109
S11305506F915F914F913F912F910F900FBE0F902C
S11305601F901895CF93CFB7F894282F392F2115C2
S113057088E0380739F461E083E08DD664E083E0F5
S11305808AD617C0203488E0380739F462E083E063
S113059082D664E083E07FD60CC02034394039F43D
S11305A062E084E078D664E084E075D602C0CFBF10
S11305B00EC08091BC208F3F09F4FFCF9FB7F89401
S11305C0EBEBF0E281818F5F81839FBFCFBFCF913F
S11305D008951F920F920FB60F9211242F933F93F9
S11305E04F935F936F937F938F939F93AF93BF9337
S11305F0EF93FF93E0913A20F0913B200995FF910E
S1130600EF91BF91AF919F918F917F916F915F9186
S11306104F913F912F910F900FBE0F901F901895FF
S11306201F920F920FB60F9211242F933F934F9363
S11306305F936F937F938F939F93AF93BF93EF9346
S1130640FF93E0913820F09139200995FF91EF91C3
S1130650BF91AF919F918F917F916F915F914F91D6
S11306603F912F910F900FBE0F901F9018959DD31F
S11306708AEA90EAA1E0B0E00197A109B109E1F7A3
S1130680E0E4F6E0828584608287818581608187E9
S11306900895EF92FF921F93CF93DF937C01162F5F
S11306A081E0D3D2CAE4D0E286EF898B1CA260E059
S11306B084E249D2698981E146D21AA3612F82E298
S11306C042D21E8660E08EE03ED26E856D878DE05C
S11306D03AD2612FC7016DD280E4809389201092B1
S11306E08A2042E069E870E20AD283E0AED2DF9168
S11306F0CF911F91FF90EF900895AC01FB01E1535E
S1130700FF4F90819336A1F431968081833681F432
S11307109B01DA01319710823196108281E01296A2
S11307208C938093C32068E0C9018F529F4FB1CF4F
S113073008951092C32068E082E105D281E085D259
S113074080E083D280E090E00196853D24E1920729
S1130750D9F783E608950F931F93CF93C82F8B0186
S1130760675F7F4F89E022D2B801645B7F4F8DE4DD
S11307701DD2F8019185992314F5E45BFF4F808124
S11307808778873871F4C5300CF4C5E0907F9067A2
S1130790C5310CF0C4E1C550CF70C92BF801C18735
S11307A01CC0C2300CF4C2E0907F9067C2310CF0E0
S11307B0C1E1C250CF70C92BF801C1870EC08C2F84
S11307C0CC230CF48FEF907F90678F300CF08EE089
S11307D08F5F8F70892BF8018187F801618589E02B
S11307E0B2D1CF911F910F9108951F93CF93DF93AF
S11307F0182FEB01675F7F4F89E0D8D199859F77E8
S1130800612F692B698789E09ED1DF91CF911F9178
S113081008951F93CF93DF93182FEB01645B7F4FF1
S11308208DE4C4D1BE01675F7F4F89E0BFD1998554
S1130830992344F4112359F087E8FE01E45BFF4F48
S1130840808305C084E8FE01E45BFF4F8083C45BC2
S1130850DF4F68818DE477D1DF91CF911F910895A7
S1130860CF93DF93EA010E949F0C20E034E244E737
S113087052E4D1D70E94730C8E837F836887BE01B4
S11308806A5F7F4F43E086E03AD1DF91CF910895CC
S11308901F93CF93DF93182FEB01605D7F4F81E3AC
S11308A085D198A9987F612F692B68AB81E34BD1DF
S11308B0DF91CF911F9108950F931F93CF93C82F6A
S11308C08B018D3048F4863010F0863031F4B80155
S11308D085E0DEDFC6E004C0CCE0B80183E0D8DF09
S11308E0B801625E7F4F8EE161D120E1C29FC001F9
S11308F01124F801668D6F70682B668F8EE123D109
S1130900CF911F910F9108951F93CF93DF93182FC9
S1130910EB01635E7F4F8DE149D1612F660F9D8DA1
S1130920917F692B6D8F8DE10ED1DF91CF911F9156
S113093008951F93CF93DF93182FEB01625E7F4FCF
S11309408EE134D1612F660F660F9E8D9B7F692BDC
S11309506E8F8EE1F8D0DF91CF911F9108951F9390
S1130960CF93DF93182FEB01635E7F4F8DE11ED190
S113097020E1129FC00111246D8D6F70682B6D8F63
S11309808DE1E1D0DF91CF911F9108951F93CF9313
S1130990DF93182FEB01635E7F4F8DE107D19D8DAF
S11309A09E7F612F692B6D8F8DE1CDD0DF91CF912B
S11309B01F910895EF92FF920F931F93CF93DF93AC
S11309C0082F192FEB017B018EE1E80EF11C42E0A8
S11309D0B7018EE1C7D0912F93702E8D2C7F922B6F
S11309E09E8F0F8F42E0B7018EE189D0DF91CF91C6
S11309F01F910F91FF90EF900895FB0182A3682F40
S1130A0082E2A1C008951F93CF93DF93182FEB01C7
S1130A106A5D7F4F86E2CAD0612F660F660F660F4C
S1130A209EA1977F692B6EA386E28DD0DF91CF9133
S1130A301F910895CF92DF92EF92FF920F931F932D
S1130A4041E050E060E880E496E0D6D340E050E036
S1130A5060E480E496E0D0D341E050E060E280E4DA
S1130A6096E0CAD341E050E060E180E696E0C4D36A
S1130A7080E18093650643E050E060E180E496E025
S1130A80BBD341E050E068E080E496E0B5D340E0B9
S1130A9050E064E080E496E0AFD340E050E060E8EA
S1130AA080E096E0A9D340E050E060E480E096E086
S1130AB0A3D380EE98E0E8D1C12CD12C760100E4D8
S1130AC012E42FE030E040E060E070E280EE98E075
S1130AD0EBD1E0EEF8E08081806480831F910F9178
S1130AE0FF90EF90DF90CF900895813021F488E05B
S1130AF080934506089588E08093460608950F93F1
S1130B001F93CF93DF93D82F8B01C42F60E070E243
S1130B1080EE98E009D2D068D093E308E0EEF8E0E4
S1130B2082818823ECF74C2F50E0B80180EE98E0E6
S1130B30D9D160E070E280EE98E00CD2DF91CF91E1
S1130B401F910F910895CF93DF931F92CDB7DEB716
S1130B50698341E0BE016F5F7F4FD1DF0F90DF916A
S1130B60CF9108950F931F93CF93DF93D82F8B01C9
S1130B70C42F60E070E280EE98E0D6D1DF77D093A6
S1130B80E308E0EEF8E082818823ECF74C2F50E094
S1130B90B80180EE98E0B5D160E070E280EE98E0B4
S1130BA0D9D1DF91CF911F910F91089541E0DACF10
S1130BB00895462FBC0180E0A2CF0895CF93DF9320
S1130BC080910720893060F4CAE4D0E268A970E01B
S1130BD081E3ECDF68A96F7768AB81E3B4DF11C010
S1130BE0CAE4D0E268A970E081E3E0DF68A9606844
S1130BF068AB81E3A8DF62E086E3A5DF64E68AE30D
S1130C00A2DF80910720811103C068E48FE29BDF9B
S1130C1080910720863018F464E48FE294DF809199
S1130C2007208650833018F460E48FE28CDFCAE436
S1130C30D0E268A970E080E3B9DF68A96E7F68AB91
S1130C4080E381DFDF91CF9108951F93CF93DF93EA
S1130C50182FCAE4D0E29981892F877080930120EC
S1130C60987F912B9983692F70E081E09FDF6981E0
S1130C70687F612B698381E066DFDF91CF911F91EB
S1130C800895CF93DF9380E0E0DF98DF4FE66AE4D6
S1130C9070E281E067DFC2E0D0E2688179818A8115
S1130CA09B814AE450E2DCDD6AE470E28E8104DE7A
S1130CB06AE470E28F8128DE6AE470E2888539DEB6
S1130CC06AE470E28D814BDE6AE470E289855EDE5F
S1130CD06AE470E28FEF93E06DDE6AE470E28D897E
S1130CE08CDE8E818B3028F06AE470E281E08BDE4A
S1130CF004C06AE470E280E086DE80910220909174
S1130D000320A0910420B091052081309F48A24483
S1130D10B34370F06AE470E280E067DD6AE470E295
S1130D2080E077DD6AE470E28091062014DD0EC075
S1130D306AE470E280E859DD6AE470E281E069DD2A
S1130D4084E1809306206AE470E205DD81E07DDFC2
S1130D50DF91CF91089580E0C8DE80E090E00196B5
S1130D60853520ED9207D9F781E0BFDE80E898E36E
S1130D70A1E0B0E00197A109B109E1F7089580E08D
S1130D8064DFEAE4F0E261816068677F618381E0A7
S1130D90DADE81E05ADF80E48093892010928A2091
S1130DA042E069E870E2ABCE0895CF93DF9342DE70
S1130DB0D2DF6BE870E282E4F9DE80918B2081510E
S1130DC0823008F05CC024E0E0E4F6E071E060E822
S1130DD05AE146E030E07783862F952FA42FB32F76
S1130DE00197A109B109E1F72150A9F781E08093A6
S1130DF0460622E0C0E4D6E072E0E0E4F9E065E50E
S1130E0053E248E030E07F838081807F8460808388
S1130E10862F952FA42FB32F0197A109B109E1F7CC
S1130E207F838081807F8083862F952FA42FB32F8B
S1130E300197A109B109E1F7215029F781E08093D5
S1130E404706E0E4F9E080E293E086A397A382EC0E
S1130E5091E082A793A78081807F8460808385E569
S1130E6093E2A8E0B0E00197A109B109E1F7E0E459
S1130E70F9E08081807F808381E0809347067FDF73
S1130E8000DFDF91CF910895CF93DF93EC01C03E53
S1130E9088E0D80719F468E083E0FDD18881806197
S1130EA08883DF91CF910895EF92FF920F931F9360
S1130EB0CF937C01C42FB901A80100E018E428EE07
S1130EC031E000D2882344F0F7019081CC0FCC0F9D
S1130ED0CC70937FC92BC083CF911F910F91FF904A
S1130EE0EF900895FC01DB01460F571F05C08D915B
S1130EF0838392819923ECF7A417B507C1F780E0A7
S1130F000895FC01DB014115510561F0460F571F9F
S1130F102FEF238392819923ECF783818D93A41778
S1130F20B507B9F780E00895FB018081E82FE695C5
S1130F30E695E69540E2E49FF0011124FA5F87709C
S1130F4021E030E0A90102C0440F551F8A95E2F761
S1130F5046830895FB018081E82FE695E695E695A2
S1130F6040E2E49FF0011124FA5F877021E030E051
S1130F70A90102C0440F551F8A95E2F745830895DD
S1130F809C019FB7F8942115324021F46093B92055
S1130F907093BA209FBF08958115924059F48091AF
S1130FA03C2091E0980F90933C20811103C062E0B3
S1130FB081E071C108958115924051F480913C20E3
S1130FC0815080933C20811103C062E081E06FC1B5
S1130FD008951F93CF93DF93EC011FB7F894DCDFE0
S1130FE08881816088831FBF8091BC208F3F09F472
S1130FF0FFCF9FB7F894EBEBF0E281818F5F8183A1
S11310009FBFDF91CF911F910895CF93CFB7F894ED
S1131010FC0120812E7F2083CEDFCFBF8091BC20B6
S1131020811101C0FFCF9FB7F894EBEBF0E281810F
S1131030815081839FBFCF9108951F920F920FB665
S11310400F9211242F933F934F935F936F937F934A
S11310508F939F93AF93BF93EF93FF934091240299
S113106050912502E091B920F091BA2061E080E02E
S113107092E00995FF91EF91BF91AF919F918F916C
S11310807F916F915F914F913F912F910F900FBE80
S11310900F901F901895DF92EF92FF920F931F937A
S11310A0CF93DF93811522E0920761F58B01EC0168
S11310B061E270E082E04DD1E82EF12C60E270E054
S11310C082E047D1FE2CEE24E82ADFB6F894CE0164
S11310D063DF8881817092E09883EC86FD86F80155
S11310E024813581288F398F91819A8393819C83C0
S11310F092819B8390819983968198878883CE017E
S11311005ADFDFBEDF91CF911F910F91FF90EF90D7
S1131110DF900895FF920F931F93CF93DF93EC0119
S11311208B01FFB6F89438DF888D998DF80184839C
S113113095838A8181838C8183838B818283898156
S1131140808388858683CE0136DFFFBEDF91CF9111
S11311501F910F91FF900895FF920F931F93CF93C8
S1131160DF93EC018A01FFB6F89416DFF801808161
S113117088A382818AA3818189A383818EA38481A8
S11311808FA3858188A7868189A787818AA780857F
S11311908BA781858CA7CE010EDFFFBEDF91CF9197
S11311A01F910F91FF900895FF920F931F93CF9378
S11311B0DF93EC018A01FFB6F894EEDE88A1F80112
S11311C080838AA1828389A181838EA183838FA155
S11311D0848388A5858389A586838AA587838BA52F
S11311E080878CA58187CE01E6DEFFBEDF91CF919B
S11311F01F910F91FF900895CF93DF93FC01709698
S113120020E030E0C62FD0E0DE01022E02C0B5950A
S1131210A7950A94E2F7A0FD50832F5F3F4F3196C4
S11312202830310589F740FF0AC041FF03C0FC01A3
S1131230658302C0FC016683FC01618302C0FC017A
S11312406283DF91CF9108958FEF80937000809334
S11312507100809372008093730080937400809374
S11312607500809376009FB7F894E0E5F0E0808104
S1131270826080839FBF818181FFFDCF61E080E434
S113128090E071D09FB7F894E0E5F0E080818E7F24
S113129080839FBF08959FB7F894E82FF0E0E0594A
S11312A0FF4F60958081682360839FBF08959FB737
S11312B0F894E82FF0E0E059FF4F8081682B6083B9
S11312C09FBF0895CF92DF92EF92FF920F931F93E7
S11312D0CF93DF93EC016A017B01DB01CA01019723
S11312E0A109B109BC01CD01600F711F821F931FB9
S11312F0A7019601B2D32138310541055105F8F40F
S1131300213460F4213260F4213160F4293060F436
S1131310253060F4233060F480E80BC083E009C01A
S113132082E007C082E805C081E003C081E801C013
S113133080E098819C77982B988381E001C08FEF9F
S1131340DF91CF911F910F91FF90EF90DF90CF909D
S113135008954091CA01E62FF72F8093CA01849122
S11313604093CA0108951BBEFC0128ED24BF60838D
S113137008951F93CF93DF9341E050E062E080E44F
S113138096E03ADF41E050E061E080E496E034DF4B
S113139041E050E064E080E096E02EDF41E050E080
S11313A060E880E696E028DF41E050E060E280E615
S11313B096E022DFE0E4F6E012E0168381E0868323
S11313C0C0E0D6E084E08E8380E88093660640E047
S11313D050E061E080E096E00FDF41E050E062E041
S11313E080E096E009DF1E8340E050E068E080E0A2
S11313F096E002DF40E050E062E080E696E0FCDE4A
S113140040E050E064E080E696E0F6DE40E050E044
S113141060E180E096E0F0DE9FB7F894E3E1F6E067
S11314208081876080839FBF9FB7F894E1E7F6E0EF
S11314308081876080839FBF9FB7F894E2E7F6E0DE
S11314408081876080839FBF9FB7F894E4E1F6E0D2
S11314508081876080839FBF9FB7F8948889876065
S1131460888B9FBFDF91CF911F9108951F93CF93D6
S1131470DF93CDB7DEB76197CDBFDEBF182FBE01B6
S11314806F5F7F4F80E092E045DEAE01485F5F4FC3
S113149061E080E092E088DE9981997E8A818F788C
S11314A08A839860998383E08C8389E4898B65EAD5
S11314B07AE080E092E064DDBE016F5F7F4F80E000
S11314C092E0E9DD9A859C7F91609A871230A9F0B9
S11314D028F4112341F0113059F01CC0133091F05D
S11314E01430A9F017C081E0888788E1898712C089
S11314F081E0888788E489870DC081E0888780E55A
S1131500898708C081E0888780E2898703C081E0F9
S113151088871986AE01485F5F4F61E080E092E002
S11315201BDE80E092E055DDE0E0F2E081E08683BE
S11315309FB7F8948081846080839FBF6196CDBFFC
S1131540DEBFDF91CF911F910895CF93CFB7F89469
S1131550E8E4F0E080818E7F8083AFE3B0E2E09145
S11315604920F0E0EE0FFF1FE15CFF4D4083518303
S11315708D919C91119780939F219093A021129615
S11315808D919C9113978093C1209093C2201496BF
S11315908D919C9115978093C4209093C5201696A5
S11315A08D919C9117978093E7219093E821189649
S11315B08D919C9119978093C6209093C720809118
S11315C03D2090913E20019680933D2090933E20B3
S11315D00297A0F080E092E018DD809149208F5FAF
S11315E0853018F48093492002C0109249208091DC
S11315F049203CDF10923D2010923E2083E68093E8
S11316009821E0E0F2E081E086839FB7F89480813E
S1131610846080839FBFCFBFCF9108951F920F92A4
S11316200FB60F9211242F933F934F935F936F93B1
S11316307F938F939F93AF93BF93CF93EF93FF9336
S1131640CFB7F89476D880939721E0E4F6E081E070
S11316508783848584608487CFBFFF91EF91CF9186
S1131660BF91AF919F918F917F916F915F914F91B6
S11316703F912F910F900FBE0F901F901895CF930D
S1131680DF9300D000D0CDB7DEB7DEDD87E08093F6
S1131690A2006FDE80E0EADE789480E499E00E94A4
S11316A0B202E0E4F9E08181887F8360818380EC89
S11316B093E086A397A38CE291E082A793A7848109
S11316C0846084830E94370380E090E0019685352E
S11316D020ED9207D9F783E680939721312C198264
S11316E01A821B821C820F2EF9E9AF2EF1E2BF2E63
S11316F0F02D0F2EFAE9CF2EF1E2DF2EF02D0F2E72
S1131700FBE9EF2EF1E2FF2EF02D0CE911E20F2E92
S1131710FDE98F2EF1E29F2EF02D0F2EFEE96F2EA4
S1131720F1E27F2EF02D0F2EFFE94F2EF1E25F2E16
S1131730F02DF89480919F219091A021D5018C9354
S113174080919F219091A021F60190838091C120E6
S11317509091C220D7018C938091C1209091C22096
S1131760F80190838091C4209091C520D4018C937A
S11317708091C4209091C520F30190838091E7214A
S11317809091E821D2018C938091E7219091E821F6
S1131790E0EAF1E29083789468EC70E288E190E208
S11317A00E947D038091C6209091C7208C3A9D4071
S11317B008F0BFCF89819A81AB81BC810196A11DBC
S11317C0B11D89839A83AB83BC83813D9740A10576
S11317D0B105E8F082E08093470631100DC0E0E4E3
S11317E0F9E08081807F846080833324339419827C
S11317F01A821B821C829DCFE0E4F9E08081807F05
S11318008083312C19821A821B821C8292CF82E03F
S1131810809346068ECF0CD0E6C0DED040F0D5D003
S113182030F021F45F3F19F0C7C0511110C1CAC094
S1131830EBD098F39923C9F35523B1F3951B550BBA
S1131840BB27AA2762177307840738F09F5F5F4F8F
S1131850220F331F441FAA1FA9F333D00E2E3AF0D0
S1131860E0E830D091505040E695001CCAF729D0EA
S1131870FE2F27D0660F771F881FBB1F2617370739
S11318804807AB07B0E809F0BB0B802DBF01FF2769
S113189093585F4F2AF09E3F510568F08DC0D7C022
S11318A05F3FECF3983EDCF3869577956795B795A3
S11318B0F7959F5FC9F7880F911D9695879597F9BE
S11318C00895E1E0660F771F881FBB1F6217730737
S11318D08407BA0720F0621B730B840BBA0BEE1F4C
S11318E088F7E095089598D088F09F5790F0B92F25
S11318F09927B751A0F0D1F0660F771F881F991F61
S11319001AF0BA95C9F712C0B13081F09FD0B1E096
S113191008959CC0672F782F8827B85F39F0B93FA6
S1131920CCF3869577956795B395D9F73EF4909562
S11319308095709561957F4F8F4F9F4F0895E894E0
S113194009C097FB3EF490958095709561957F4F03
S11319508F4F9F4F9923A9F0F92F96E9BB279395B1
S1131960F695879577956795B795F111F8CFFAF4C1
S1131970BB0F11F460FF1BC06F5F7F4F8F4F9F4FF2
S113198016C0882311F096E911C0772321F09EE850
S1131990872F762F05C0662371F096E8862F70E0B6
S11319A060E02AF09A95660F771F881FDAF7880F90
S11319B09695879597F9089597F99F6780E870E061
S11319C060E008959FEF80EC089500240A941616B1
S11319D0170618060906089500240A941216130619
S11319E0140605060895092E0394000C11F48823A7
S11319F052F0BB0F40F4BF2B11F460FF04C06F5FC3
S1131A007F4F8F4F9F4F089557FD9058440F551F98
S1131A1059F05F3F71F04795880F97FB991F61F06C
S1131A209F3F79F087950895121613061406551FE3
S1131A30F2CF4695F1DF08C0161617061806991F4F
S1131A40F1CF86957105610508940895E894BB2744
S1131A5066277727CB0197F90895A1E21A2EAA1BCE
S1131A60BB1BFD010DC0AA1FBB1FEE1FFF1FA2174A
S1131A70B307E407F50720F0A21BB30BE40BF50B47
S1131A80661F771F881F991F1A9469F760957095D0
S1131A90809590959B01AC01BD01CF010895F89408
S1051AA0FFCF72
S1131AA2140108E6D333050908010101010004C841
S10F1AB2000000DC050000080202020035
S9030000FC
